{
  "contractName": "Tickets",
  "abi": [
    {
      "inputs": [],
      "stateMutability": "nonpayable",
      "type": "constructor"
    },
    {
      "inputs": [],
      "name": "TOTAL_TICKETS",
      "outputs": [
        {
          "internalType": "uint256",
          "name": "",
          "type": "uint256"
        }
      ],
      "stateMutability": "view",
      "type": "function",
      "constant": true
    },
    {
      "inputs": [],
      "name": "owner",
      "outputs": [
        {
          "internalType": "address",
          "name": "",
          "type": "address"
        }
      ],
      "stateMutability": "view",
      "type": "function",
      "constant": true
    },
    {
      "inputs": [
        {
          "internalType": "uint256",
          "name": "",
          "type": "uint256"
        }
      ],
      "name": "tickets",
      "outputs": [
        {
          "internalType": "uint256",
          "name": "price",
          "type": "uint256"
        },
        {
          "internalType": "address",
          "name": "owner",
          "type": "address"
        }
      ],
      "stateMutability": "view",
      "type": "function",
      "constant": true
    },
    {
      "inputs": [
        {
          "internalType": "uint256",
          "name": "_index",
          "type": "uint256"
        }
      ],
      "name": "buyTicket",
      "outputs": [],
      "stateMutability": "payable",
      "type": "function",
      "payable": true
    },
    {
      "inputs": [
        {
          "internalType": "uint256",
          "name": "_index",
          "type": "uint256"
        }
      ],
      "name": "getTicket",
      "outputs": [
        {
          "components": [
            {
              "internalType": "uint256",
              "name": "price",
              "type": "uint256"
            },
            {
              "internalType": "address",
              "name": "owner",
              "type": "address"
            }
          ],
          "internalType": "struct Tickets.Ticket",
          "name": "",
          "type": "tuple"
        }
      ],
      "stateMutability": "view",
      "type": "function",
      "constant": true
    }
  ],
  "bytecode": "0x608060405234801561000f575f80fd5b50335f806101000a81548173ffffffffffffffffffffffffffffffffffffffff021916908373ffffffffffffffffffffffffffffffffffffffff1602179055505f5b600a8110156100ed5767016345785d8a0000600182600a8110610077576100766100f3565b5b600202015f01819055505f600182600a8110610096576100956100f3565b5b600202016001015f6101000a81548173ffffffffffffffffffffffffffffffffffffffff021916908373ffffffffffffffffffffffffffffffffffffffff16021790555080806100e590610156565b915050610051565b5061019d565b7f4e487b71000000000000000000000000000000000000000000000000000000005f52603260045260245ffd5b7f4e487b71000000000000000000000000000000000000000000000000000000005f52601160045260245ffd5b5f819050919050565b5f6101608261014d565b91507fffffffffffffffffffffffffffffffffffffffffffffffffffffffffffffffff820361019257610191610120565b5b600182019050919050565b610761806101aa5f395ff3fe608060405260043610610049575f3560e01c806350b447121461004d57806367dd74ca1461008a5780637dc379fa146100a65780638da5cb5b146100e2578063afbd17821461010c575b5f80fd5b348015610058575f80fd5b50610073600480360381019061006e9190610480565b610136565b6040516100819291906104f9565b60405180910390f35b6100a4600480360381019061009f9190610480565b61017c565b005b3480156100b1575f80fd5b506100cc60048036038101906100c79190610480565b610320565b6040516100d9919061056b565b60405180910390f35b3480156100ed575f80fd5b506100f66103f3565b6040516101039190610584565b60405180910390f35b348015610117575f80fd5b50610120610416565b60405161012d919061059d565b60405180910390f35b600181600a8110610145575f80fd5b600202015f91509050805f015490806001015f9054906101000a900473ffffffffffffffffffffffffffffffffffffffff16905082565b600a81106101bf576040517f08c379a00000000000000000000000000000000000000000000000000000000081526004016101b690610610565b60405180910390fd5b5f73ffffffffffffffffffffffffffffffffffffffff16600182600a81106101ea576101e961062e565b5b600202016001015f9054906101000a900473ffffffffffffffffffffffffffffffffffffffff1673ffffffffffffffffffffffffffffffffffffffff1614610267576040517f08c379a000000000000000000000000000000000000000000000000000000000815260040161025e906106a5565b60405180910390fd5b600181600a811061027b5761027a61062e565b5b600202015f01543410156102c4576040517f08c379a00000000000000000000000000000000000000000000000000000000081526004016102bb9061070d565b60405180910390fd5b33600182600a81106102d9576102d861062e565b5b600202016001015f6101000a81548173ffffffffffffffffffffffffffffffffffffffff021916908373ffffffffffffffffffffffffffffffffffffffff16021790555050565b61032861041b565b600a821061036b576040517f08c379a000000000000000000000000000000000000000000000000000000000815260040161036290610610565b60405180910390fd5b600182600a811061037f5761037e61062e565b5b600202016040518060400160405290815f8201548152602001600182015f9054906101000a900473ffffffffffffffffffffffffffffffffffffffff1673ffffffffffffffffffffffffffffffffffffffff1673ffffffffffffffffffffffffffffffffffffffff16815250509050919050565b5f8054906101000a900473ffffffffffffffffffffffffffffffffffffffff1681565b600a81565b60405180604001604052805f81526020015f73ffffffffffffffffffffffffffffffffffffffff1681525090565b5f80fd5b5f819050919050565b61045f8161044d565b8114610469575f80fd5b50565b5f8135905061047a81610456565b92915050565b5f6020828403121561049557610494610449565b5b5f6104a28482850161046c565b91505092915050565b6104b48161044d565b82525050565b5f73ffffffffffffffffffffffffffffffffffffffff82169050919050565b5f6104e3826104ba565b9050919050565b6104f3816104d9565b82525050565b5f60408201905061050c5f8301856104ab565b61051960208301846104ea565b9392505050565b6105298161044d565b82525050565b610538816104d9565b82525050565b604082015f8201516105525f850182610520565b506020820151610565602085018261052f565b50505050565b5f60408201905061057e5f83018461053e565b92915050565b5f6020820190506105975f8301846104ea565b92915050565b5f6020820190506105b05f8301846104ab565b92915050565b5f82825260208201905092915050565b7f496e646578206f7574206f6620626f756e6473000000000000000000000000005f82015250565b5f6105fa6013836105b6565b9150610605826105c6565b602082019050919050565b5f6020820190508181035f830152610627816105ee565b9050919050565b7f4e487b71000000000000000000000000000000000000000000000000000000005f52603260045260245ffd5b7f5469636b657420616c726561647920736f6c64000000000000000000000000005f82015250565b5f61068f6013836105b6565b915061069a8261065b565b602082019050919050565b5f6020820190508181035f8301526106bc81610683565b9050919050565b7f496e73756666696369656e74207061796d656e740000000000000000000000005f82015250565b5f6106f76014836105b6565b9150610702826106c3565b602082019050919050565b5f6020820190508181035f830152610724816106eb565b905091905056fea26469706673582212201719341a7e41634ffd7b0f2773033b6cb337d6b8b0191857e14b36495dd4d75f64736f6c63430008150033",
  "immutableReferences": {},
  "source": "// SPDX-License-Identifier: MIT\r\npragma solidity >=0.8.21 <0.9.0;\r\n\r\ncontract Tickets {\r\n    // Jumlah total tiket\r\n    uint256 public constant TOTAL_TICKETS = 10;\r\n\r\n    // Pemilik kontrak\r\n    address public owner;\r\n\r\n    // Struktur data untuk tiket\r\n    struct Ticket {\r\n        uint256 price;  // Harga tiket dalam Wei\r\n        address owner;  // Pemilik tiket\r\n    }\r\n\r\n    // Array tiket\r\n    Ticket[TOTAL_TICKETS] public tickets;\r\n\r\n    // Constructor untuk menginisialisasi tiket\r\n    constructor() {\r\n        owner = msg.sender; // Set pemilik kontrak ke alamat pengirim\r\n        for (uint256 i = 0; i < TOTAL_TICKETS; i++) {\r\n            tickets[i].price = 1e17; // 0.1 ETH (dalam Wei)\r\n            tickets[i].owner = address(0); // Alamat kosong\r\n        }\r\n    }\r\n\r\n    // Fungsi untuk membeli tiket\r\n    function buyTicket(uint256 _index) external payable {\r\n        require(_index < TOTAL_TICKETS, \"Index out of bounds\");\r\n        require(tickets[_index].owner == address(0), \"Ticket already sold\");\r\n        require(msg.value >= tickets[_index].price, \"Insufficient payment\");\r\n\r\n        // Transfer tiket ke pembeli\r\n        tickets[_index].owner = msg.sender;\r\n    }\r\n\r\n    // Fungsi untuk mendapatkan detail tiket\r\n    function getTicket(uint256 _index) external view returns (Ticket memory) {\r\n        require(_index < TOTAL_TICKETS, \"Index out of bounds\");\r\n        return tickets[_index];\r\n    }\r\n}\r\n",
  "sourcePath": "C:\\Workspaces\\WEB3-TICKETS\\contracts\\Tickets.sol",
  "compiler": {
    "name": "solc",
    "version": "0.8.21+commit.d9974bed.Emscripten.clang"
  },
  "schemaVersion": "3.4.16",
  "updatedAt": "2024-10-14T01:37:50.976Z",
  "networkType": "ethereum",
  "devdoc": {
    "kind": "dev",
    "methods": {},
    "version": 1
  },
  "userdoc": {
    "kind": "user",
    "methods": {},
    "version": 1
  }
}